:060000000A128A110C280F
:10000800FE00030EFA000A08FB000A128A111929D9
:100018000A128A110F288313AA30FD000330FE004C
:100028007230FF00A03084000A128A1163230A127A
:100038008A114A30FD000230FE00FE30FF002030F9
:1000480084000A128A1163230A128A114A30840032
:1000580060300A128A117C230A128A11FC01FD0100
:1000680083010A128A11382883160313880186012E
:100078008501890187018B17831203130C108316DE
:1000880003130C140B1721308312031390008F01F4
:100098001F10FF30831603139F00013083120313D0
:1000A800850006144108E1004008E0000A128A11A0
:1000B80028230A128A11013083120313E00000304A
:1000C800E1000A128A1145230A128A1183120313C6
:1000D800061086143F08E1003E08E0000A128A1163
:1000E80028230A128A11013083120313E00000301A
:1000F800E1000A128A1145230A128A118312031396
:10010800861006155708E1005608E0000A128A1101
:1001180028230A128A11013083120313E0000030E9
:10012800E1000A128A1145230A128A118312031365
:10013800061186153D08E1003C08E0000A128A1104
:1001480028230A128A11013083120313E0000030B9
:10015800E1000A128A1145230A128A118312031335
:10016800861106173B08E1003A08E0000A128A11D6
:1001780028230A128A11013083120313E000003089
:10018800E1000A128A1145230A128A118312031305
:10019800061386175508E1005408E0000A128A1170
:1001A80028230A128A11013083120313E000003059
:1001B800E1000A128A1145230A128A1183120313D5
:1001C800861306165308E1005208E0000A128A1145
:1001D80028230A128A11013083120313E000003029
:1001E800E1000A128A1145230A128A1183120313A5
:1001F800061286163908E1003808E0000A128A114A
:1002080028230A128A11013083120313E0000030F8
:10021800E1000A128A1145230A128A118312031374
:10022800861255280A128A110C28831203130C1CF3
:100238001E291F29F0290C100130D8070318D90AE4
:100248000030D907133058065904031D2C292D29CD
:10025800F029D801D9014108F1004008F0003F0811
:10026800F3003E08F2002D08F5002C08F4002F08D2
:10027800F7002E08F6003108F9003008F8000A12D5
:100288008A11F7210A128A117D0883120313C1000B
:100298007C08C0005108BF005008BE004F08AD00E0
:1002A8004E08AC004D08AF004C08AE004B08B1003A
:1002B8004A08B0005708F1005608F0003D08F3005E
:1002C8003C08F2002708F5002608F4002908F70082
:1002D8002808F6002B08F9002A08F8000A128A11E3
:1002E800F7210A128A117D0883120313D7007C08AC
:1002F800D6005108BD005008BC004F08A7004E08A2
:10030800A6004D08A9004C08A8004B08AB004A08F5
:10031800AA005308F1005208F0003908F300380821
:10032800F2002108F5002008F4002308F70022084D
:10033800F6002508F9002408F8000A128A11F721A6
:100348000A128A117D0883120313D3007C08D20095
:100358005108B9005008B8004F08A1004E08A00085
:100368004D08A3004C08A2004B08A5004A08A400A9
:100378003B08F1003A08F0005508F3005408F20071
:100388003308F5003208F4003508F7003408F600A1
:100398003708F9003608F8000A128A11F7210A12FC
:1003A8008A117D0883120313BB007C08BA00510828
:1003B800D5005008D4004F08B3004E08B2004D08CD
:1003C800B5004C08B4004B08B7004A08B6000A123A
:1003D8008A1183220A128A117B088A007A0E830006
:1003E800FE0E7E0E09007008FF3EF000710803182B
:1003F800013EFF3EF100700A031D062A710A031D23
:10040800062A072A132A0930F0000030F100720882
:10041800FF3EF20073080318013EFF3EF300720A24
:10042800031D1A2A730A031D1A2A1B2A6C2A780824
:100438007904031D202A212A362A83120313490826
:10044800F1004808F0005F08F3005E08F200F401CC
:10045800F5010130F8000030F9000130F6000030F5
:10046800F7006C2A76087704031D3B2A3C2A512A98
:10047800831203134708F1004608F0004508F3000B
:100488004408F2000130F6000030F700F801F901E5
:100498000130F4000030F5006C2A74087504031D5F
:1004A800562A572A6C2A831203134308F10042087C
:1004B800F0005D08F3005C08F200F601F701013076
:1004C800F4000030F5000130F8000030F9006C2A23
:1004D800750883120313CF007408CE007908CB0087
:1004E8007808CA007708CD007608CC007108FD00AE
:1004F8007008FC007308D1007208D000080083124D
:1005080003132018882A8C2A8312031309158F2AAB
:100518008312031309112218922A962A83120313AD
:100528008914992A831203138910241C9C2AA02A4F
:10053800831203130914A32A83120313091026181C
:10054800A62AAA2A831203138716AD2A8312031335
:1005580087122818B02AB42A831203130716B72A59
:100568008312031307122A1CBA2ABE2A8312031302
:100578008715C12A8312031387112C18C42AC82A85
:10058800831203138514CB2A8312031385102E18A4
:10059800CE2AD22A831203130516D52A83120313EF
:1005A8000512301CD82ADC2A831203138516DF2A89
:1005B8008312031385123218E22AE62A83120313E0
:1005C8008717E92A8312031387133418EC2AF02AB1
:1005D800831203138714F32A831203138710361C1C
:1005E800F62AFA2A831203130717FD2A8312031324
:1005F8000713080001340034013400340034003497
:10060800013400340134003400340034013400343F
:100618000134003400340034003400340134003430
:100628000134003403340034093400340134003414
:10063800023400340134003401340034023400340C
:10064800093400340834003466308400A030831242
:100658000313E2000408E3000A30E400620884009F
:1006680083130008E500E20A630884006508800037
:10067800E30AE40B322B6008663E84000008880019
:10068800080083120313E201E3010130831203130C
:10069800E2070318E30A0030E3076308803AFF0023
:1006A80084307F02031D5A2BB0306202031C5D2B7D
:1006B8005E2B492B08007E088A007F0882000A12F8
:1006C8008A115F230A128A118000840A04087D06B1
:1006D80003190034FF0A0319FE0A632BC034F934E6
:1006E800A434B034993492348234F8348034903459
:1006F80064008001840A04060319003404067D2B73
:02400E00B93FB8
:00000001FF
